{
  "_format": "hh-sol-artifact-1",
  "contractName": "Vault",
  "sourceName": "contracts/Vault.sol",
  "abi": [
    {
      "inputs": [
        {
          "internalType": "address",
          "name": "addr",
          "type": "address"
        }
      ],
      "name": "AddressIsZero1",
      "type": "error"
    },
    {
      "inputs": [
        {
          "internalType": "address",
          "name": "addr1",
          "type": "address"
        },
        {
          "internalType": "address",
          "name": "addr2",
          "type": "address"
        }
      ],
      "name": "AddressIsZero2",
      "type": "error"
    },
    {
      "inputs": [
        {
          "internalType": "uint256",
          "name": "amount",
          "type": "uint256"
        }
      ],
      "name": "AmountNotMoreThanZero",
      "type": "error"
    },
    {
      "anonymous": false,
      "inputs": [
        {
          "indexed": true,
          "internalType": "address",
          "name": "previousOwner",
          "type": "address"
        },
        {
          "indexed": true,
          "internalType": "address",
          "name": "newOwner",
          "type": "address"
        }
      ],
      "name": "OwnershipTransferred",
      "type": "event"
    },
    {
      "anonymous": false,
      "inputs": [
        {
          "indexed": false,
          "internalType": "address",
          "name": "account",
          "type": "address"
        }
      ],
      "name": "Paused",
      "type": "event"
    },
    {
      "anonymous": false,
      "inputs": [
        {
          "indexed": false,
          "internalType": "address",
          "name": "account",
          "type": "address"
        }
      ],
      "name": "Unpaused",
      "type": "event"
    },
    {
      "inputs": [
        {
          "internalType": "uint256",
          "name": "_amounts",
          "type": "uint256"
        },
        {
          "internalType": "address",
          "name": "_tokenAddr",
          "type": "address"
        },
        {
          "internalType": "address",
          "name": "_donee",
          "type": "address"
        }
      ],
      "name": "donate",
      "outputs": [],
      "stateMutability": "nonpayable",
      "type": "function"
    },
    {
      "inputs": [],
      "name": "owner",
      "outputs": [
        {
          "internalType": "address",
          "name": "",
          "type": "address"
        }
      ],
      "stateMutability": "view",
      "type": "function"
    },
    {
      "inputs": [],
      "name": "paused",
      "outputs": [
        {
          "internalType": "bool",
          "name": "",
          "type": "bool"
        }
      ],
      "stateMutability": "view",
      "type": "function"
    },
    {
      "inputs": [],
      "name": "renounceOwnership",
      "outputs": [],
      "stateMutability": "nonpayable",
      "type": "function"
    },
    {
      "inputs": [
        {
          "internalType": "address",
          "name": "newOwner",
          "type": "address"
        }
      ],
      "name": "transferOwnership",
      "outputs": [],
      "stateMutability": "nonpayable",
      "type": "function"
    },
    {
      "inputs": [
        {
          "internalType": "address",
          "name": "_donee",
          "type": "address"
        },
        {
          "internalType": "address",
          "name": "_tokenAddr",
          "type": "address"
        }
      ],
      "name": "viewBalance",
      "outputs": [
        {
          "internalType": "uint256",
          "name": "",
          "type": "uint256"
        }
      ],
      "stateMutability": "view",
      "type": "function"
    },
    {
      "inputs": [],
      "name": "viewWhiteListedTokens",
      "outputs": [
        {
          "internalType": "address[]",
          "name": "",
          "type": "address[]"
        }
      ],
      "stateMutability": "view",
      "type": "function"
    },
    {
      "inputs": [
        {
          "internalType": "address",
          "name": "_tokenAddr",
          "type": "address"
        }
      ],
      "name": "whitelistToken",
      "outputs": [],
      "stateMutability": "nonpayable",
      "type": "function"
    },
    {
      "inputs": [
        {
          "internalType": "address",
          "name": "_tokenAddr",
          "type": "address"
        }
      ],
      "name": "withdraw",
      "outputs": [],
      "stateMutability": "nonpayable",
      "type": "function"
    }
  ],
  "bytecode": "0x608060405234801561001057600080fd5b5060016000819055805460ff191690556100293361002e565b610088565b600180546001600160a01b03838116610100818102610100600160a81b031985161790945560405193909204169182907f8be0079c531659141344cd1fd0a4f28419497f9722a3daafe3b4186f6b6457e090600090a35050565b610c45806100976000396000f3fe608060405234801561001057600080fd5b50600436106100935760003560e01c80636247f6f2116100665780636247f6f21461012357806367a46f3314610136578063715018a61461014b5780638da5cb5b14610153578063f2fde38b1461017c57600080fd5b80630e014cf81461009857806337f3f7ea146100e557806351cff8d9146100fa5780635c975abb1461010d575b600080fd5b6100d26100a6366004610a96565b6001600160a01b0380821660009081526002602090815260408083209386168352929052205492915050565b6040519081526020015b60405180910390f35b6100f86100f3366004610ae8565b61018f565b005b6100f8610108366004610a7c565b61030c565b60015460ff1660405190151581526020016100dc565b6100f8610131366004610a7c565b6103a0565b61013e610491565b6040516100dc9190610b3f565b6100f86104f3565b60015461010090046001600160a01b03166040516001600160a01b0390911681526020016100dc565b6100f861018a366004610a7c565b61055f565b600260005414156101e75760405162461bcd60e51b815260206004820152601f60248201527f5265656e7472616e637947756172643a207265656e7472616e742063616c6c0060448201526064015b60405180910390fd5b60026000558261020d57604051636ac4e72d60e11b8152600481018490526024016101de565b6001600160a01b038216158061022a57506001600160a01b038116155b1561025b57604051631a46550560e31b81526001600160a01b038084166004830152821660248201526044016101de565b61026482610630565b6102b05760405162461bcd60e51b815260206004820152601660248201527f4e6f742077686974656c697374656420746f6b656e210000000000000000000060448201526064016101de565b6001600160a01b038083166000908152600260209081526040808320938516835292905290812080548592906102e7908490610bbf565b9091555061030290506001600160a01b0383163330866106fe565b5050600160005550565b6002600054141561035f5760405162461bcd60e51b815260206004820152601f60248201527f5265656e7472616e637947756172643a207265656e7472616e742063616c6c0060448201526064016101de565b600260008181556001600160a01b0383168082526020928352604080832033808552945282208054929055909161039791908361076f565b50506001600055565b6001546001600160a01b036101009091041633146104005760405162461bcd60e51b815260206004820181905260248201527f4f776e61626c653a2063616c6c6572206973206e6f7420746865206f776e657260448201526064016101de565b6001600160a01b0381166104325760405163b4fa03dd60e01b81526001600160a01b03821660048201526024016101de565b600380546001810182556000919091527fc2575a0e9e593c00f959f8c92f12db2869c3395a3b0502d05e2516446f71f85b01805473ffffffffffffffffffffffffffffffffffffffff19166001600160a01b0392909216919091179055565b606060038054806020026020016040519081016040528092919081815260200182805480156104e957602002820191906000526020600020905b81546001600160a01b031681526001909101906020018083116104cb575b5050505050905090565b6001546001600160a01b036101009091041633146105535760405162461bcd60e51b815260206004820181905260248201527f4f776e61626c653a2063616c6c6572206973206e6f7420746865206f776e657260448201526064016101de565b61055d60006107a4565b565b6001546001600160a01b036101009091041633146105bf5760405162461bcd60e51b815260206004820181905260248201527f4f776e61626c653a2063616c6c6572206973206e6f7420746865206f776e657260448201526064016101de565b6001600160a01b0381166106245760405162461bcd60e51b815260206004820152602660248201527f4f776e61626c653a206e6577206f776e657220697320746865207a65726f206160448201526564647265737360d01b60648201526084016101de565b61062d816107a4565b50565b60038054604080516020808402820181019092528281526000938492849083018282801561068757602002820191906000526020600020905b81546001600160a01b03168152600190910190602001808311610669575b5050505050905060005b828160ff1610156106f357846001600160a01b0316828260ff16815181106106c957634e487b7160e01b600052603260045260246000fd5b60200260200101516001600160a01b031614156106eb57506001949350505050565b600101610691565b506000949350505050565b6040516001600160a01b03808516602483015283166044820152606481018290526107699085906323b872dd60e01b906084015b60408051601f198184030181529190526020810180516001600160e01b03166001600160e01b03199093169290921790915261080b565b50505050565b6040516001600160a01b03831660248201526044810182905261079f90849063a9059cbb60e01b90606401610732565b505050565b600180546001600160a01b0383811661010081810274ffffffffffffffffffffffffffffffffffffffff001985161790945560405193909204169182907f8be0079c531659141344cd1fd0a4f28419497f9722a3daafe3b4186f6b6457e090600090a35050565b6000610860826040518060400160405280602081526020017f5361666545524332303a206c6f772d6c6576656c2063616c6c206661696c6564815250856001600160a01b03166108dd9092919063ffffffff16565b80519091501561079f578080602001905181019061087e9190610ac8565b61079f5760405162461bcd60e51b815260206004820152602a60248201527f5361666545524332303a204552433230206f7065726174696f6e20646964206e6044820152691bdd081cdd58d8d9595960b21b60648201526084016101de565b60606108ec84846000856108f6565b90505b9392505050565b6060824710156109575760405162461bcd60e51b815260206004820152602660248201527f416464726573733a20696e73756666696369656e742062616c616e636520666f6044820152651c8818d85b1b60d21b60648201526084016101de565b6001600160a01b0385163b6109ae5760405162461bcd60e51b815260206004820152601d60248201527f416464726573733a2063616c6c20746f206e6f6e2d636f6e747261637400000060448201526064016101de565b600080866001600160a01b031685876040516109ca9190610b23565b60006040518083038185875af1925050503d8060008114610a07576040519150601f19603f3d011682016040523d82523d6000602084013e610a0c565b606091505b5091509150610a1c828286610a27565b979650505050505050565b60608315610a365750816108ef565b825115610a465782518084602001fd5b8160405162461bcd60e51b81526004016101de9190610b8c565b80356001600160a01b0381168114610a7757600080fd5b919050565b600060208284031215610a8d578081fd5b6108ef82610a60565b60008060408385031215610aa8578081fd5b610ab183610a60565b9150610abf60208401610a60565b90509250929050565b600060208284031215610ad9578081fd5b815180151581146108ef578182fd5b600080600060608486031215610afc578081fd5b83359250610b0c60208501610a60565b9150610b1a60408501610a60565b90509250925092565b60008251610b35818460208701610be3565b9190910192915050565b6020808252825182820181905260009190848201906040850190845b81811015610b805783516001600160a01b031683529284019291840191600101610b5b565b50909695505050505050565b6020815260008251806020840152610bab816040850160208701610be3565b601f01601f19169190910160400192915050565b60008219821115610bde57634e487b7160e01b81526011600452602481fd5b500190565b60005b83811015610bfe578181015183820152602001610be6565b83811115610769575050600091015256fea26469706673582212202d3b03387307afff9fe4563ecb5f932d096956a11e31d7a3e0c34a7e70ba81b964736f6c63430008040033",
  "linkReferences": {},
  "deployedLinkReferences": {}
}