{
  "address": "0xe7f1725E7734CE288F8367e1Bb143E90bb3F0512",
  "abi": [
    {
      "anonymous": false,
      "inputs": [
        {
          "indexed": true,
          "internalType": "address",
          "name": "previousOwner",
          "type": "address"
        },
        {
          "indexed": true,
          "internalType": "address",
          "name": "newOwner",
          "type": "address"
        }
      ],
      "name": "OwnershipTransferred",
      "type": "event"
    },
    {
      "anonymous": false,
      "inputs": [
        {
          "indexed": false,
          "internalType": "address",
          "name": "account",
          "type": "address"
        }
      ],
      "name": "Paused",
      "type": "event"
    },
    {
      "anonymous": false,
      "inputs": [
        {
          "indexed": false,
          "internalType": "address",
          "name": "account",
          "type": "address"
        }
      ],
      "name": "Unpaused",
      "type": "event"
    },
    {
      "inputs": [
        {
          "internalType": "uint256",
          "name": "_amounts",
          "type": "uint256"
        },
        {
          "internalType": "address",
          "name": "_tokenAddr",
          "type": "address"
        },
        {
          "internalType": "address",
          "name": "_donee",
          "type": "address"
        }
      ],
      "name": "donate",
      "outputs": [],
      "stateMutability": "nonpayable",
      "type": "function"
    },
    {
      "inputs": [],
      "name": "owner",
      "outputs": [
        {
          "internalType": "address",
          "name": "",
          "type": "address"
        }
      ],
      "stateMutability": "view",
      "type": "function"
    },
    {
      "inputs": [],
      "name": "paused",
      "outputs": [
        {
          "internalType": "bool",
          "name": "",
          "type": "bool"
        }
      ],
      "stateMutability": "view",
      "type": "function"
    },
    {
      "inputs": [],
      "name": "recoverERC20",
      "outputs": [],
      "stateMutability": "nonpayable",
      "type": "function"
    },
    {
      "inputs": [],
      "name": "renounceOwnership",
      "outputs": [],
      "stateMutability": "nonpayable",
      "type": "function"
    },
    {
      "inputs": [
        {
          "internalType": "address",
          "name": "newOwner",
          "type": "address"
        }
      ],
      "name": "transferOwnership",
      "outputs": [],
      "stateMutability": "nonpayable",
      "type": "function"
    },
    {
      "inputs": [
        {
          "internalType": "address",
          "name": "_tokenAddr",
          "type": "address"
        }
      ],
      "name": "whitelistToken",
      "outputs": [],
      "stateMutability": "nonpayable",
      "type": "function"
    },
    {
      "inputs": [
        {
          "internalType": "address",
          "name": "_tokenAddr",
          "type": "address"
        }
      ],
      "name": "withdraw",
      "outputs": [],
      "stateMutability": "nonpayable",
      "type": "function"
    }
  ],
  "transactionHash": "0x6173d6db86513919d387424e64e105d8fee5077936ec0778f034c8d5b8e2418b",
  "args": [],
  "numDeployments": 1,
  "solcInputHash": "0c0ee05ad327ef03044d9e5a2035a46a",
  "bytecode": "0x608060405234801561001057600080fd5b5060016000819055506000600160006101000a81548160ff02191690831515021790555061005061004561005560201b60201c565b61005d60201b60201c565b610120565b600033905090565b600060018054906101000a900473ffffffffffffffffffffffffffffffffffffffff169050816001806101000a81548173ffffffffffffffffffffffffffffffffffffffff021916908373ffffffffffffffffffffffffffffffffffffffff1602179055508173ffffffffffffffffffffffffffffffffffffffff168173ffffffffffffffffffffffffffffffffffffffff167f8be0079c531659141344cd1fd0a4f28419497f9722a3daafe3b4186f6b6457e060405160405180910390a35050565b6117a98061012f6000396000f3fe608060405234801561001057600080fd5b50600436106100885760003560e01c8063715018a61161005b578063715018a6146100ff5780637c0f1ee7146101095780638da5cb5b14610113578063f2fde38b1461013157610088565b806337f3f7ea1461008d57806351cff8d9146100a95780635c975abb146100c55780636247f6f2146100e3575b600080fd5b6100a760048036038101906100a29190610fd3565b61014d565b005b6100c360048036038101906100be9190610f81565b610485565b005b6100cd61069b565b6040516100da9190611263565b60405180910390f35b6100fd60048036038101906100f89190610f81565b6106b2565b005b610107610794565b005b61011161081c565b005b61011b6108f0565b60405161012891906111e8565b60405180910390f35b61014b60048036038101906101469190610f81565b610918565b005b60026000541415610193576040517f08c379a000000000000000000000000000000000000000000000000000000000815260040161018a90611380565b60405180910390fd5b600260008190555081600073ffffffffffffffffffffffffffffffffffffffff168173ffffffffffffffffffffffffffffffffffffffff16141561020c576040517f08c379a0000000000000000000000000000000000000000000000000000000008152600401610203906112a0565b60405180910390fd5b81600073ffffffffffffffffffffffffffffffffffffffff168173ffffffffffffffffffffffffffffffffffffffff16141561027d576040517f08c379a0000000000000000000000000000000000000000000000000000000008152600401610274906112a0565b60405180910390fd5b61028684610a10565b6102c5576040517f08c379a00000000000000000000000000000000000000000000000000000000081526004016102bc90611320565b60405180910390fd5b6004839080600181540180825580915050600190039060005260206000200160009091909190916101000a81548173ffffffffffffffffffffffffffffffffffffffff021916908373ffffffffffffffffffffffffffffffffffffffff16021790555084600360008673ffffffffffffffffffffffffffffffffffffffff1673ffffffffffffffffffffffffffffffffffffffff1681526020019081526020016000205461037391906113d2565b600360008673ffffffffffffffffffffffffffffffffffffffff1673ffffffffffffffffffffffffffffffffffffffff1681526020019081526020016000208190555084600260008673ffffffffffffffffffffffffffffffffffffffff1673ffffffffffffffffffffffffffffffffffffffff16815260200190815260200160002060008573ffffffffffffffffffffffffffffffffffffffff1673ffffffffffffffffffffffffffffffffffffffff168152602001908152602001600020600082825461044291906113d2565b925050819055506104763384878773ffffffffffffffffffffffffffffffffffffffff16610aeb909392919063ffffffff16565b50506001600081905550505050565b600260005414156104cb576040517f08c379a00000000000000000000000000000000000000000000000000000000081526004016104c290611380565b60405180910390fd5b60026000819055506000600260008373ffffffffffffffffffffffffffffffffffffffff1673ffffffffffffffffffffffffffffffffffffffff16815260200190815260200160002060003373ffffffffffffffffffffffffffffffffffffffff1673ffffffffffffffffffffffffffffffffffffffff16815260200190815260200160002054905080600360008473ffffffffffffffffffffffffffffffffffffffff1673ffffffffffffffffffffffffffffffffffffffff1681526020019081526020016000205461059f9190611428565b600360008473ffffffffffffffffffffffffffffffffffffffff1673ffffffffffffffffffffffffffffffffffffffff168152602001908152602001600020819055506000600260008473ffffffffffffffffffffffffffffffffffffffff1673ffffffffffffffffffffffffffffffffffffffff16815260200190815260200160002060003373ffffffffffffffffffffffffffffffffffffffff1673ffffffffffffffffffffffffffffffffffffffff1681526020019081526020016000208190555061068f33828473ffffffffffffffffffffffffffffffffffffffff16610b749092919063ffffffff16565b50600160008190555050565b6000600160009054906101000a900460ff16905090565b6106ba610bfa565b73ffffffffffffffffffffffffffffffffffffffff166106d86108f0565b73ffffffffffffffffffffffffffffffffffffffff161461072e576040517f08c379a000000000000000000000000000000000000000000000000000000000815260040161072590611300565b60405180910390fd5b6005819080600181540180825580915050600190039060005260206000200160009091909190916101000a81548173ffffffffffffffffffffffffffffffffffffffff021916908373ffffffffffffffffffffffffffffffffffffffff16021790555050565b61079c610bfa565b73ffffffffffffffffffffffffffffffffffffffff166107ba6108f0565b73ffffffffffffffffffffffffffffffffffffffff1614610810576040517f08c379a000000000000000000000000000000000000000000000000000000000815260040161080790611300565b60405180910390fd5b61081a6000610c02565b565b610824610bfa565b73ffffffffffffffffffffffffffffffffffffffff166108426108f0565b73ffffffffffffffffffffffffffffffffffffffff1614610898576040517f08c379a000000000000000000000000000000000000000000000000000000000815260040161088f90611300565b60405180910390fd5b600260005414156108de576040517f08c379a00000000000000000000000000000000000000000000000000000000081526004016108d590611380565b60405180910390fd5b60026000819055506001600081905550565b600060018054906101000a900473ffffffffffffffffffffffffffffffffffffffff16905090565b610920610bfa565b73ffffffffffffffffffffffffffffffffffffffff1661093e6108f0565b73ffffffffffffffffffffffffffffffffffffffff1614610994576040517f08c379a000000000000000000000000000000000000000000000000000000000815260040161098b90611300565b60405180910390fd5b600073ffffffffffffffffffffffffffffffffffffffff168173ffffffffffffffffffffffffffffffffffffffff161415610a04576040517f08c379a00000000000000000000000000000000000000000000000000000000081526004016109fb906112c0565b60405180910390fd5b610a0d81610c02565b50565b600080600090505b6005805490508160ff161015610ae0578273ffffffffffffffffffffffffffffffffffffffff1660058260ff1681548110610a7c577f4e487b7100000000000000000000000000000000000000000000000000000000600052603260045260246000fd5b9060005260206000200160009054906101000a900473ffffffffffffffffffffffffffffffffffffffff1673ffffffffffffffffffffffffffffffffffffffff161415610acd576001915050610ae6565b8080610ad8906114e4565b915050610a18565b50600090505b919050565b610b6e846323b872dd60e01b858585604051602401610b0c93929190611203565b604051602081830303815290604052907bffffffffffffffffffffffffffffffffffffffffffffffffffffffff19166020820180517bffffffffffffffffffffffffffffffffffffffffffffffffffffffff8381831617835250505050610cc5565b50505050565b610bf58363a9059cbb60e01b8484604051602401610b9392919061123a565b604051602081830303815290604052907bffffffffffffffffffffffffffffffffffffffffffffffffffffffff19166020820180517bffffffffffffffffffffffffffffffffffffffffffffffffffffffff8381831617835250505050610cc5565b505050565b600033905090565b600060018054906101000a900473ffffffffffffffffffffffffffffffffffffffff169050816001806101000a81548173ffffffffffffffffffffffffffffffffffffffff021916908373ffffffffffffffffffffffffffffffffffffffff1602179055508173ffffffffffffffffffffffffffffffffffffffff168173ffffffffffffffffffffffffffffffffffffffff167f8be0079c531659141344cd1fd0a4f28419497f9722a3daafe3b4186f6b6457e060405160405180910390a35050565b6000610d27826040518060400160405280602081526020017f5361666545524332303a206c6f772d6c6576656c2063616c6c206661696c65648152508573ffffffffffffffffffffffffffffffffffffffff16610d8c9092919063ffffffff16565b9050600081511115610d875780806020019051810190610d479190610faa565b610d86576040517f08c379a0000000000000000000000000000000000000000000000000000000008152600401610d7d90611360565b60405180910390fd5b5b505050565b6060610d9b8484600085610da4565b90509392505050565b606082471015610de9576040517f08c379a0000000000000000000000000000000000000000000000000000000008152600401610de0906112e0565b60405180910390fd5b610df285610eb8565b610e31576040517f08c379a0000000000000000000000000000000000000000000000000000000008152600401610e2890611340565b60405180910390fd5b6000808673ffffffffffffffffffffffffffffffffffffffff168587604051610e5a91906111d1565b60006040518083038185875af1925050503d8060008114610e97576040519150601f19603f3d011682016040523d82523d6000602084013e610e9c565b606091505b5091509150610eac828286610edb565b92505050949350505050565b6000808273ffffffffffffffffffffffffffffffffffffffff163b119050919050565b60608315610eeb57829050610f3b565b600083511115610efe5782518084602001fd5b816040517f08c379a0000000000000000000000000000000000000000000000000000000008152600401610f32919061127e565b60405180910390fd5b9392505050565b600081359050610f518161172e565b92915050565b600081519050610f6681611745565b92915050565b600081359050610f7b8161175c565b92915050565b600060208284031215610f9357600080fd5b6000610fa184828501610f42565b91505092915050565b600060208284031215610fbc57600080fd5b6000610fca84828501610f57565b91505092915050565b600080600060608486031215610fe857600080fd5b6000610ff686828701610f6c565b935050602061100786828701610f42565b925050604061101886828701610f42565b9150509250925092565b61102b8161145c565b82525050565b61103a8161146e565b82525050565b600061104b826113a0565b61105581856113b6565b93506110658185602086016114b1565b80840191505092915050565b600061107c826113ab565b61108681856113c1565b93506110968185602086016114b1565b61109f8161153d565b840191505092915050565b60006110b7601e836113c1565b91506110c28261154e565b602082019050919050565b60006110da6026836113c1565b91506110e582611577565b604082019050919050565b60006110fd6026836113c1565b9150611108826115c6565b604082019050919050565b60006111206020836113c1565b915061112b82611615565b602082019050919050565b60006111436023836113c1565b915061114e8261163e565b604082019050919050565b6000611166601d836113c1565b91506111718261168d565b602082019050919050565b6000611189602a836113c1565b9150611194826116b6565b604082019050919050565b60006111ac601f836113c1565b91506111b782611705565b602082019050919050565b6111cb8161149a565b82525050565b60006111dd8284611040565b915081905092915050565b60006020820190506111fd6000830184611022565b92915050565b60006060820190506112186000830186611022565b6112256020830185611022565b61123260408301846111c2565b949350505050565b600060408201905061124f6000830185611022565b61125c60208301846111c2565b9392505050565b60006020820190506112786000830184611031565b92915050565b600060208201905081810360008301526112988184611071565b905092915050565b600060208201905081810360008301526112b9816110aa565b9050919050565b600060208201905081810360008301526112d9816110cd565b9050919050565b600060208201905081810360008301526112f9816110f0565b9050919050565b6000602082019050818103600083015261131981611113565b9050919050565b6000602082019050818103600083015261133981611136565b9050919050565b6000602082019050818103600083015261135981611159565b9050919050565b600060208201905081810360008301526113798161117c565b9050919050565b600060208201905081810360008301526113998161119f565b9050919050565b600081519050919050565b600081519050919050565b600081905092915050565b600082825260208201905092915050565b60006113dd8261149a565b91506113e88361149a565b9250827fffffffffffffffffffffffffffffffffffffffffffffffffffffffffffffffff0382111561141d5761141c61150e565b5b828201905092915050565b60006114338261149a565b915061143e8361149a565b9250828210156114515761145061150e565b5b828203905092915050565b60006114678261147a565b9050919050565b60008115159050919050565b600073ffffffffffffffffffffffffffffffffffffffff82169050919050565b6000819050919050565b600060ff82169050919050565b60005b838110156114cf5780820151818401526020810190506114b4565b838111156114de576000848401525b50505050565b60006114ef826114a4565b915060ff8214156115035761150261150e565b5b600182019050919050565b7f4e487b7100000000000000000000000000000000000000000000000000000000600052601160045260246000fd5b6000601f19601f8301169050919050565b7f416464726573732063616e6e6f74206265207a65726f20616464726573730000600082015250565b7f4f776e61626c653a206e6577206f776e657220697320746865207a65726f206160008201527f6464726573730000000000000000000000000000000000000000000000000000602082015250565b7f416464726573733a20696e73756666696369656e742062616c616e636520666f60008201527f722063616c6c0000000000000000000000000000000000000000000000000000602082015250565b7f4f776e61626c653a2063616c6c6572206973206e6f7420746865206f776e6572600082015250565b7f43616e6e6f7420646f6e617465206e6f6e2d7065726d697474656420746f6b6560008201527f6e73210000000000000000000000000000000000000000000000000000000000602082015250565b7f416464726573733a2063616c6c20746f206e6f6e2d636f6e7472616374000000600082015250565b7f5361666545524332303a204552433230206f7065726174696f6e20646964206e60008201527f6f74207375636365656400000000000000000000000000000000000000000000602082015250565b7f5265656e7472616e637947756172643a207265656e7472616e742063616c6c00600082015250565b6117378161145c565b811461174257600080fd5b50565b61174e8161146e565b811461175957600080fd5b50565b6117658161149a565b811461177057600080fd5b5056fea264697066735822122051e185239770688cfd731496d44f42e3ec3fccb3aea4eeda2548c55a8d0af49564736f6c63430008040033",
  "devdoc": {
    "kind": "dev",
    "methods": {
      "owner()": {
        "details": "Returns the address of the current owner."
      },
      "paused()": {
        "details": "Returns true if the contract is paused, and false otherwise."
      },
      "renounceOwnership()": {
        "details": "Leaves the contract without owner. It will not be possible to call `onlyOwner` functions anymore. Can only be called by the current owner. NOTE: Renouncing ownership will leave the contract without an owner, thereby removing any functionality that is only available to the owner."
      },
      "transferOwnership(address)": {
        "details": "Transfers ownership of the contract to a new account (`newOwner`). Can only be called by the current owner."
      }
    },
    "version": 1
  },
  "userdoc": {
    "kind": "user",
    "methods": {},
    "version": 1
  },
  "storageLayout": {
    "storage": [
      {
        "astId": 207,
        "contract": "contracts/Vault.sol:Vault",
        "label": "_status",
        "offset": 0,
        "slot": "0",
        "type": "t_uint256"
      },
      {
        "astId": 122,
        "contract": "contracts/Vault.sol:Vault",
        "label": "_paused",
        "offset": 0,
        "slot": "1",
        "type": "t_bool"
      },
      {
        "astId": 7,
        "contract": "contracts/Vault.sol:Vault",
        "label": "_owner",
        "offset": 1,
        "slot": "1",
        "type": "t_address"
      },
      {
        "astId": 1300,
        "contract": "contracts/Vault.sol:Vault",
        "label": "doneeBalance",
        "offset": 0,
        "slot": "2",
        "type": "t_mapping(t_address,t_mapping(t_address,t_uint256))"
      },
      {
        "astId": 1304,
        "contract": "contracts/Vault.sol:Vault",
        "label": "tokenBalances",
        "offset": 0,
        "slot": "3",
        "type": "t_mapping(t_address,t_uint256)"
      },
      {
        "astId": 1307,
        "contract": "contracts/Vault.sol:Vault",
        "label": "donees",
        "offset": 0,
        "slot": "4",
        "type": "t_array(t_address)dyn_storage"
      },
      {
        "astId": 1310,
        "contract": "contracts/Vault.sol:Vault",
        "label": "whiteListedTokens",
        "offset": 0,
        "slot": "5",
        "type": "t_array(t_address)dyn_storage"
      }
    ],
    "types": {
      "t_address": {
        "encoding": "inplace",
        "label": "address",
        "numberOfBytes": "20"
      },
      "t_array(t_address)dyn_storage": {
        "base": "t_address",
        "encoding": "dynamic_array",
        "label": "address[]",
        "numberOfBytes": "32"
      },
      "t_bool": {
        "encoding": "inplace",
        "label": "bool",
        "numberOfBytes": "1"
      },
      "t_mapping(t_address,t_mapping(t_address,t_uint256))": {
        "encoding": "mapping",
        "key": "t_address",
        "label": "mapping(address => mapping(address => uint256))",
        "numberOfBytes": "32",
        "value": "t_mapping(t_address,t_uint256)"
      },
      "t_mapping(t_address,t_uint256)": {
        "encoding": "mapping",
        "key": "t_address",
        "label": "mapping(address => uint256)",
        "numberOfBytes": "32",
        "value": "t_uint256"
      },
      "t_uint256": {
        "encoding": "inplace",
        "label": "uint256",
        "numberOfBytes": "32"
      }
    }
  }
}