{
  "address": "0x67d269191c92Caf3cD7723F116c85e6E9bf55933",
  "abi": [
    {
      "anonymous": false,
      "inputs": [
        {
          "indexed": true,
          "internalType": "address",
          "name": "previousOwner",
          "type": "address"
        },
        {
          "indexed": true,
          "internalType": "address",
          "name": "newOwner",
          "type": "address"
        }
      ],
      "name": "OwnershipTransferred",
      "type": "event"
    },
    {
      "anonymous": false,
      "inputs": [
        {
          "indexed": false,
          "internalType": "address",
          "name": "account",
          "type": "address"
        }
      ],
      "name": "Paused",
      "type": "event"
    },
    {
      "anonymous": false,
      "inputs": [
        {
          "indexed": false,
          "internalType": "address",
          "name": "account",
          "type": "address"
        }
      ],
      "name": "Unpaused",
      "type": "event"
    },
    {
      "inputs": [
        {
          "internalType": "uint256",
          "name": "_amounts",
          "type": "uint256"
        },
        {
          "internalType": "address",
          "name": "_tokenAddr",
          "type": "address"
        },
        {
          "internalType": "address",
          "name": "_donee",
          "type": "address"
        }
      ],
      "name": "donate",
      "outputs": [],
      "stateMutability": "nonpayable",
      "type": "function"
    },
    {
      "inputs": [],
      "name": "owner",
      "outputs": [
        {
          "internalType": "address",
          "name": "",
          "type": "address"
        }
      ],
      "stateMutability": "view",
      "type": "function"
    },
    {
      "inputs": [],
      "name": "paused",
      "outputs": [
        {
          "internalType": "bool",
          "name": "",
          "type": "bool"
        }
      ],
      "stateMutability": "view",
      "type": "function"
    },
    {
      "inputs": [],
      "name": "renounceOwnership",
      "outputs": [],
      "stateMutability": "nonpayable",
      "type": "function"
    },
    {
      "inputs": [
        {
          "internalType": "address",
          "name": "newOwner",
          "type": "address"
        }
      ],
      "name": "transferOwnership",
      "outputs": [],
      "stateMutability": "nonpayable",
      "type": "function"
    },
    {
      "inputs": [],
      "name": "viewWhiteListedTokens",
      "outputs": [
        {
          "internalType": "address[]",
          "name": "",
          "type": "address[]"
        }
      ],
      "stateMutability": "view",
      "type": "function"
    },
    {
      "inputs": [
        {
          "internalType": "address",
          "name": "_tokenAddr",
          "type": "address"
        }
      ],
      "name": "whitelistToken",
      "outputs": [],
      "stateMutability": "nonpayable",
      "type": "function"
    },
    {
      "inputs": [
        {
          "internalType": "address",
          "name": "_tokenAddr",
          "type": "address"
        }
      ],
      "name": "withdraw",
      "outputs": [],
      "stateMutability": "nonpayable",
      "type": "function"
    }
  ],
  "transactionHash": "0x033e121683d941a8a3e513a728e1bf681a63fdfa96cfc1aca936fd1680066c94",
  "args": [],
  "numDeployments": 1,
  "solcInputHash": "a7fe75c33c77a6e94cbf4a27eb770098",
  "bytecode": "0x608060405234801561001057600080fd5b5060016000819055805460ff191690556100293361002e565b610088565b600180546001600160a01b03838116610100818102610100600160a81b031985161790945560405193909204169182907f8be0079c531659141344cd1fd0a4f28419497f9722a3daafe3b4186f6b6457e090600090a35050565b610bbb806100976000396000f3fe608060405234801561001057600080fd5b50600436106100885760003560e01c806367a46f331161005b57806367a46f33146100e3578063715018a6146100f85780638da5cb5b14610100578063f2fde38b1461012957600080fd5b806337f3f7ea1461008d57806351cff8d9146100a25780635c975abb146100b55780636247f6f2146100d0575b600080fd5b6100a061009b3660046109e8565b61013c565b005b6100a06100b03660046109ae565b61032a565b60015460ff1660405190151581526020015b60405180910390f35b6100a06100de3660046109ae565b6103fe565b6100eb610480565b6040516100c79190610a3f565b6100a06104e2565b60015461010090046001600160a01b03166040516001600160a01b0390911681526020016100c7565b6100a06101373660046109ae565b61051e565b600260005414156101945760405162461bcd60e51b815260206004820152601f60248201527f5265656e7472616e637947756172643a207265656e7472616e742063616c6c0060448201526064015b60405180910390fd5b6002600055826101de5760405162461bcd60e51b8152602060048201526015602482015274125b9d985b1a5908191bdb985d1948185b5bdd5b9d605a1b604482015260640161018b565b6101e7826105bf565b61023f5760405162461bcd60e51b815260206004820152602360248201527f43616e6e6f7420646f6e617465206e6f6e2d7065726d697474656420746f6b656044820152626e732160e81b606482015260840161018b565b6001600160a01b0382161580159061025f57506001600160a01b03811615155b61029e5760405162461bcd60e51b815260206004820152601060248201526f52657175697265206e6f6e2d7a65726f60801b604482015260640161018b565b6001600160a01b0382166000908152600360205260409020546102c2908490610af4565b6001600160a01b03808416600090815260036020908152604080832094909455600281528382209285168252919091529081208054859290610305908490610af4565b9091555061032090506001600160a01b03831633308661063d565b5050600160005550565b6002600054141561037d5760405162461bcd60e51b815260206004820152601f60248201527f5265656e7472616e637947756172643a207265656e7472616e742063616c6c00604482015260640161018b565b600260008181556001600160a01b038316808252602092835260408083203384528452808320549183526003909352919020546103bb908290610b0c565b6001600160a01b03831660008181526003602090815260408083209490945560028152838220338084529152928120556103f591836106ae565b50506001600055565b6001546001600160a01b0361010090910416331461042e5760405162461bcd60e51b815260040161018b90610abf565b600480546001810182556000919091527f8a35acfbc15ff81a39ae7d344fd709f28e8600b4aa8c65c6b64bfe7fe36bd19b0180546001600160a01b0319166001600160a01b0392909216919091179055565b606060048054806020026020016040519081016040528092919081815260200182805480156104d857602002820191906000526020600020905b81546001600160a01b031681526001909101906020018083116104ba575b5050505050905090565b6001546001600160a01b036101009091041633146105125760405162461bcd60e51b815260040161018b90610abf565b61051c60006106e3565b565b6001546001600160a01b0361010090910416331461054e5760405162461bcd60e51b815260040161018b90610abf565b6001600160a01b0381166105b35760405162461bcd60e51b815260206004820152602660248201527f4f776e61626c653a206e6577206f776e657220697320746865207a65726f206160448201526564647265737360d01b606482015260840161018b565b6105bc816106e3565b50565b6000805b60045460ff8216101561063457826001600160a01b031660048260ff16815481106105fe57634e487b7160e01b600052603260045260246000fd5b6000918252602090912001546001600160a01b031614156106225750600192915050565b8061062c81610b4f565b9150506105c3565b50600092915050565b6040516001600160a01b03808516602483015283166044820152606481018290526106a89085906323b872dd60e01b906084015b60408051601f198184030181529190526020810180516001600160e01b03166001600160e01b03199093169290921790915261073d565b50505050565b6040516001600160a01b0383166024820152604481018290526106de90849063a9059cbb60e01b90606401610671565b505050565b600180546001600160a01b03838116610100818102610100600160a81b031985161790945560405193909204169182907f8be0079c531659141344cd1fd0a4f28419497f9722a3daafe3b4186f6b6457e090600090a35050565b6000610792826040518060400160405280602081526020017f5361666545524332303a206c6f772d6c6576656c2063616c6c206661696c6564815250856001600160a01b031661080f9092919063ffffffff16565b8051909150156106de57808060200190518101906107b091906109c8565b6106de5760405162461bcd60e51b815260206004820152602a60248201527f5361666545524332303a204552433230206f7065726174696f6e20646964206e6044820152691bdd081cdd58d8d9595960b21b606482015260840161018b565b606061081e8484600085610828565b90505b9392505050565b6060824710156108895760405162461bcd60e51b815260206004820152602660248201527f416464726573733a20696e73756666696369656e742062616c616e636520666f6044820152651c8818d85b1b60d21b606482015260840161018b565b6001600160a01b0385163b6108e05760405162461bcd60e51b815260206004820152601d60248201527f416464726573733a2063616c6c20746f206e6f6e2d636f6e7472616374000000604482015260640161018b565b600080866001600160a01b031685876040516108fc9190610a23565b60006040518083038185875af1925050503d8060008114610939576040519150601f19603f3d011682016040523d82523d6000602084013e61093e565b606091505b509150915061094e828286610959565b979650505050505050565b60608315610968575081610821565b8251156109785782518084602001fd5b8160405162461bcd60e51b815260040161018b9190610a8c565b80356001600160a01b03811681146109a957600080fd5b919050565b6000602082840312156109bf578081fd5b61082182610992565b6000602082840312156109d9578081fd5b81518015158114610821578182fd5b6000806000606084860312156109fc578182fd5b83359250610a0c60208501610992565b9150610a1a60408501610992565b90509250925092565b60008251610a35818460208701610b23565b9190910192915050565b6020808252825182820181905260009190848201906040850190845b81811015610a805783516001600160a01b031683529284019291840191600101610a5b565b50909695505050505050565b6020815260008251806020840152610aab816040850160208701610b23565b601f01601f19169190910160400192915050565b6020808252818101527f4f776e61626c653a2063616c6c6572206973206e6f7420746865206f776e6572604082015260600190565b60008219821115610b0757610b07610b6f565b500190565b600082821015610b1e57610b1e610b6f565b500390565b60005b83811015610b3e578181015183820152602001610b26565b838111156106a85750506000910152565b600060ff821660ff811415610b6657610b66610b6f565b60010192915050565b634e487b7160e01b600052601160045260246000fdfea26469706673582212208b776ebbe7531a56d51dee348035c065726397d5032adbcc7d0ecea8ae13895c64736f6c63430008040033",
  "devdoc": {
    "kind": "dev",
    "methods": {
      "owner()": {
        "details": "Returns the address of the current owner."
      },
      "paused()": {
        "details": "Returns true if the contract is paused, and false otherwise."
      },
      "renounceOwnership()": {
        "details": "Leaves the contract without owner. It will not be possible to call `onlyOwner` functions anymore. Can only be called by the current owner. NOTE: Renouncing ownership will leave the contract without an owner, thereby removing any functionality that is only available to the owner."
      },
      "transferOwnership(address)": {
        "details": "Transfers ownership of the contract to a new account (`newOwner`). Can only be called by the current owner."
      }
    },
    "version": 1
  },
  "userdoc": {
    "kind": "user",
    "methods": {},
    "version": 1
  },
  "storageLayout": {
    "storage": [
      {
        "astId": 207,
        "contract": "contracts/Vault.sol:Vault",
        "label": "_status",
        "offset": 0,
        "slot": "0",
        "type": "t_uint256"
      },
      {
        "astId": 122,
        "contract": "contracts/Vault.sol:Vault",
        "label": "_paused",
        "offset": 0,
        "slot": "1",
        "type": "t_bool"
      },
      {
        "astId": 7,
        "contract": "contracts/Vault.sol:Vault",
        "label": "_owner",
        "offset": 1,
        "slot": "1",
        "type": "t_address"
      },
      {
        "astId": 1930,
        "contract": "contracts/Vault.sol:Vault",
        "label": "doneeBalance",
        "offset": 0,
        "slot": "2",
        "type": "t_mapping(t_address,t_mapping(t_address,t_uint256))"
      },
      {
        "astId": 1934,
        "contract": "contracts/Vault.sol:Vault",
        "label": "tokenBalances",
        "offset": 0,
        "slot": "3",
        "type": "t_mapping(t_address,t_uint256)"
      },
      {
        "astId": 1937,
        "contract": "contracts/Vault.sol:Vault",
        "label": "whiteListedTokens",
        "offset": 0,
        "slot": "4",
        "type": "t_array(t_address)dyn_storage"
      }
    ],
    "types": {
      "t_address": {
        "encoding": "inplace",
        "label": "address",
        "numberOfBytes": "20"
      },
      "t_array(t_address)dyn_storage": {
        "base": "t_address",
        "encoding": "dynamic_array",
        "label": "address[]",
        "numberOfBytes": "32"
      },
      "t_bool": {
        "encoding": "inplace",
        "label": "bool",
        "numberOfBytes": "1"
      },
      "t_mapping(t_address,t_mapping(t_address,t_uint256))": {
        "encoding": "mapping",
        "key": "t_address",
        "label": "mapping(address => mapping(address => uint256))",
        "numberOfBytes": "32",
        "value": "t_mapping(t_address,t_uint256)"
      },
      "t_mapping(t_address,t_uint256)": {
        "encoding": "mapping",
        "key": "t_address",
        "label": "mapping(address => uint256)",
        "numberOfBytes": "32",
        "value": "t_uint256"
      },
      "t_uint256": {
        "encoding": "inplace",
        "label": "uint256",
        "numberOfBytes": "32"
      }
    }
  }
}